:040000000DEF00F010
:04000800A8EFA7F0C6
:06001800FF00ABEFA9F0B0
:10F59000000000000000000000000000000000006B
:10F5A00000000000F8000000000000003330000000
:10F5B0000000100C06100C06000000000000000007
:10F5C0000040C07840C0784000043F04043F040479
:10F5D00000007088FC08300000001820FF211E0089
:10F5E00000F008F000E018000000211C031E211E9E
:10F5F0000000F00888700000001E21232419272134
:10F600001010160E000000000000000000000000B6
:10F6100000000000E018040200000000071820406D
:10F620000000020418E0000000004020180700005D
:10F6300000404080F0804040000202010F010202C1
:10F6400000000000F0000000000101011F010101A5
:10F6500000000000000000000080B070000000000A
:10F660000000000000000000000001010101010194
:10F670000100000000000000000030300000000029
:10F6800000000000008060180400601806010000FF
:10F690000000E010080810E000000F102020100FFC
:10F6A00000001010F8000000000020203F20200083
:10F6B00000007008080888700000302824222130DB
:10F6C0000000300888884830000018202020110EE3
:10F6D000000000C02010F8000000070424243F248C
:10F6E0000000F80888880808000019212020110E61
:10F6F0000000E0108888180000000F112020110E73
:10F700000000380808C83808000000003F0000006A
:10F71000000070880808887000001C222121221C2B
:10F720000000E010080810E0000000312222110F54
:10F7300000000000C0C000000000000030300000E9
:10F740000000000080000000000000806000000059
:10F750000000008040201008000001020408102072
:10F7600000404040404040400004040404040404BD
:10F770000000081020408000000020100804020152
:10F7800000007048080808F0000000003036010052
:10F7900000C030C828E810E0000718272423140B05
:10F7A000000000C038E0000000203C23020227389F
:10F7B0002008F8888888700000203F202020110E43
:10F7C00000C030080808083800071820202010085A
:10F7D0000008F808080810E000203F202020100F43
:10F7E0000008F88888E8081000203F20202320180F
:10F7F0000008F88888E8081000203F200003000077
:10F8000000C03008080838000007182020221E0217
:10F810000008F808000008F808203F210101213FF6
:10F8200020000808F8080800000020203F202000E1
:10F830000000000808F8080800C08080807F0000F1
:10F840000008F888C028180800203F20012638202A
:10F850000008F8080000000000203F202020203091
:10F860000008F8F800F8F80800203F003F003F20AB
:10F870000008F830C00008F808203F200007183FB3
:10F8800000E01008080810E0000F10202020100FE2
:10F890000008F808080808F000203F2101010100D5
:10F8A00000E01008080810E0000F18242438504F1A
:10F8B0000008F8888888887000203F2000030C30FA
:10F8C0002000708808080838000038202121221CF8
:10F8D00000180808F8080818000000203F20000061
:10F8E0000008F808000008F808001F202020201F4A
:10F8F000000878880000C83808000007380E0100AA
:10F9000000F80800F80008F800033C0700073C0373
:10F9100000081868808068180820302C03032C30F9
:10F92000200838C800C83808000000203F20000028
:10F930000010080808C838080020382621202018A0
:10F9400000000000FE020202000000007F40404074
:10F9500000000C30C000000000000000010638C0AC
:10F960000000020202FE000000004040407F000054
:10F970000000000402020204000000000000000079
:10F9800000000000000000000080808080808080F7
:10F9900080000202040000000000000000000000DF
:10F9A0000000008080808000000019242222223F75
:10F9B0002008F8008080000000003F112020110E78
:10F9C000000000008080800000000E112020201127
:10F9D00000000000808088F800000E112020103FF9
:10F9E000200000808080800000001F22222222133D
:10F9F00000008080F0888888180020203F202000A8
:10FA0000000000808080808000006B94949493605C
:10FA10000008F8008080800000203F210000203F87
:10FA20002000809898000000000020203F20200047
:10FA300000000000809898000000C08080807F0057
:10FA40000008F8000080808000203F24022D302034
:10FA500000000808F8000000000020203F202000DF
:10FA6000008080808080808000203F20003F200038
:10FA70003F8080008080800000203F210000203FE8
:10FA8000200000808080800000001F202020201F98
:10FA900000808000808000000080FFA12020110EE7
:10FAA000000000008080808000000E112020A0FF58
:10FAB00080808080008080800020203F2120000105
:10FAC00000000080808080800000332424242419DA
:10FAD00000008080E0808000000000001F202000E7
:10FAE000008080000000808000001F202020103F48
:10FAF00020808080000080808000010E3008060198
:10FB00000080800080008080800F300C030C300F5C
:10FB10000000808000808080000020312E0E312087
:10FB200000808080000080808080818E70180601B7
:10FB30000000808080808080000021302C222130D5
:10FB40000000000000807C020200000000003F4036
:10FB50004000000000FF00000000000000FF000067
:10FB6000000002027C800000000040403F000000D6
:10FB70000000060101020204040000000000000071
:10FB8000000000000000000000002F00000000073F
:10FB900000070000147F147F1400242A7F2A12001B
:10FBA0006264081323003649552250000005030003
:10FBB0000000001C224100000041221C000014082B
:10FBC0003E08140008083E0808000000A06000007D
:10FBD0000808080808000060600000002010080401
:10FBE00002003E5149453E0000427F400000426114
:10FBF000514946002141454B31001814127F100035
:10FC00002745454539003C4A4949300001710905FD
:10FC10000300364949493600064949291E00003685
:10FC20003600000000563600000008142241000093
:10FC30001414141414000041221408000201510984
:10FC40000600324959513E007C1211127C007F4956
:10FC5000494936003E41414122007F4141221C007A
:10FC60007F49494941007F09090901003E4149494D
:10FC70007A007F0808087F0000417F410000204093
:10FC8000413F01007F08142241007F404040400076
:10FC90007F020C027F007F0408107F003E4141413B
:10FCA0003E007F09090906003E4151215E007F099F
:10FCB0001929460046494949310001017F010100E7
:10FCC0003F4040403F001F2040201F003F40384041
:10FCD0003F006314081463000708700807006151AF
:10FCE00049454300007F41410000552A552A5500EF
:10FCF0000041417F000004020102040040404040F6
:10FD000040000001020400002054545478007F4851
:10FD100044443800384444442000384444487F0078
:10FD2000385454541800087E0901020018A4A4A4F1
:10FD30007C007F080404780000447D40000040807F
:10FD4000847D00007F102844000000417F400000B7
:10FD50007C04180478007C08040478003844444487
:10FD60003800FC242424180018242418FC007C08E3
:10FD700004040800485454542000043F4440200028
:10FD80003C4040207C001C2040201C003C40304077
:10FD90003C004428102844001CA0A0A07C0044641F
:10FDA000544C441414141414142020FEFE20202457
:10FDB0000404FC04040404FC0000003F1F188844F1
:10FDC000301F414040407F1F00080808FEFE0830F9
:10FDD000F82CA7E424F4BC24E00282FF7F01888B86
:10FDE0004A29381E384B4A8B08109090909090907A
:10FDF0009010FE2020261C1010404020203F201094
:10FE00001010031F70C080F020380A6A6A6A7E7E74
:10FE10006A6A6A6A0A380000003F151515153FE541
:10FE2000959595956FE020000092C40800FC04E4CD
:10FE3000A4A4BCA4A4E4E40400F01EC078BF403332
:10FE40009A82FE02021B630000FE2A2A2A2A3E0032
:10FE5000003E2A2A2A2AFE0000FF0044251F05052D
:10FE6000057F058584807F00008084547464D40CF1
:10FE700000C24C5864E6508800008C8E8A8A7B80D1
:10FE800097556464745F8600001010F0FE9010FCBB
:10FE9000FC44C444444444C600040701FF00613FDD
:10FEA0008340432C303C4780000A5D01000000E4A1
:10FEB00048010000000000000000000000000000F9
:10FEC00000000000000000000000EE5A01000000E9
:10FED0000000002E5401000000B45701000000642F
:10FEE0005701000000000000AC5B01C65C0100008F
:10FEF000001E5B01000000000000000000325E01F7
:10FF00000000000200000006024000000020202047
:10FF100020202020202020202020202020005820C9
:10FF20003D2020202020202020202020202000599B
:10FF3000203D2020202020202020202020202000C4
:10FF40005A203D202020202020202020202020205A
:10FF5000004144433A20202020202020202020203F
:10FF600020004D4350393830303A202020202020C6
:10FF70002020004C69676874696E673A2020202051
:10FF80002020200050494331384635375134332042
:10FF90004D3A3020005049433138463537513433DB
:10FFA000204D3A31200050494331384635375134DD
:10FFB00033204D3A3220005072652E3D25352E32C9
:10FFC00066204B70610054656D703D2025352E32E2
:10FFD0006620430048756D2E3D25352E326620255E
:10FFE0006300424D45323830204661696C00696ECD
:0FFFF00066006E616E00253364002534640000E6
:020000040001F9
:10000000000E0501B16F8BC5B2F58CC5B3F58DC57A
:10001000B4F58EC5B5F5B5BF12EF80F010EF80F0E6
:1000200026EF80F0010EB16FB2C504F5B3C505F53A
:10003000B4C506F5B5C507F527ECADF004C5B2F5B6
:1000400005C5B3F506C5B4F507C5B5F5000E050140
:10005000B76F000EB66F5AC5A1F55BC5A2F5B151D9
:10006000D8B435EF80F037EF80F04BEF80F0B1512E
:10007000D8A43DEF80F03FEF80F045EF80F0000E18
:10008000976F2B0E966F49EF80F0000E976F2D0E35
:10009000966F96C5B1F5B2C504F5B3C505F5B4C5FF
:1000A00006F5B5C507F550ECA1F004040510D8A479
:1000B0005CEF80F05EEF80F091EF80F00501B151D0
:1000C000D8B465EF80F067EF80F070EF80F0B1C5D5
:1000D00040F6A107D8A0A207000EB76F010EB66FB9
:1000E000400EB625046E060EB721056EEE0E066EA6
:1000F000FF0E076EEDECACF00501FD0EA127FF0E23
:10010000A22389C514F58AC515F5400E166E060E94
:10011000176EA1C518F5A2C519F557ECA7F0FEEFAB
:1001200084F0B2C504F5B3C505F5B4C506F5B5C58B
:1001300007F550ECA1F004500510D8A4A2EF80F010
:10014000A4EF80F0C4EF80F00501B151D8B4ABEF5B
:1001500080F0ADEF80F0B6EF80F0B1C540F6A107BA
:10016000D8A0A207000EB76F010EB66F400EB625DD
:10017000046E060EB721056EF20E066EFF0E076EB8
:10018000EDECACF07CEF80F0000E0501B86F000ED6
:10019000B96F800EBA6F3F0EBB6F000EA06F000EDE
:1001A0009F6FB2C504F5B3C505F5B4C506F5B5C571
:1001B00007F5000E086E000E096E000E0A6E000EA6
:1001C0000B6EB0ECA6F0D8B0E8EF80F0EAEF80F06C
:1001D000CAEF81F0F7EF80F0A3C5B8F5A4C5B9F573
:1001E000A5C5BAF5A6C5BBF505019F4BA02BB8C5A3
:1001F00004F5B9C505F5BAC506F5BBC507F5000E8A
:10020000086E000E096E200E0A6E410E0B6E1EEC7B
:1002100091F004C5A3F505C5A4F506C5A5F507C568
:10022000A6F50501A351B25D046EA451B359056E44
:10023000A551B459066EA651B559076E37ECABF00F
:1002400007BE2EEF81F007500610051009E1020EDF
:10025000045CD8A02EEF81F030EF81F0ECEF80F05D
:10026000A3C51DF5A4C51EF5A5C51FF5A6C520F59A
:10027000B2C521F5B3C522F5B4C523F5B5C524F53E
:10028000CEECA0F0D8A047EF81F049EF81F0ECEF81
:1002900080F00501B851B25D046EB951B359056ED5
:1002A000BA51B459066EBB51B559076E37ECABF075
:1002B00007BE68EF81F007500610051007E1020E37
:1002C000045CD8B066EF81F068EF81F0B1EF81F0A7
:1002D000B8C5B2F5B9C5B3F5BAC5B4F5BBC5B5F582
:1002E000CAEF81F0B8C560F5B9C561F5BAC562F568
:1002F000BBC563F5000E0501646F000E656F200E2F
:10030000666F410E676F01EC95F060C5B8F561C589
:10031000B9F562C5BAF563C5BBF505019F07D8A05D
:10032000A007B851B25D046EB951B359056EBA5108
:10033000B459066EBB51B559076E37ECABF007BE2A
:10034000AFEF81F007500610051007E1020E045CC4
:10035000D8B0ADEF81F0AFEF81F0B1EF81F068EF91
:1003600081F0B2C51DF5B3C51EF5B4C51FF5B5C501
:1003700020F5B8C521F5B9C522F5BAC523F5BBC529
:1003800024F5CEECA0F0D8A0C8EF81F0CAEF81F040
:1003900072EF81F08FC599F599C59AF50501F9BFFE
:1003A000D4EF81F0D6EF81F0DCEF81F0F8C592F563
:1003B000F9C593F5E0EF81F0000E936F060E926F92
:1003C00092C59DF593C59EF59D4B9E2B660E9A1981
:1003D000D8A4EDEF81F0EFEF81F00FEF82F0A0BF36
:1003E000F6EF81F0F4EF81F002EF82F0000EB86FCB
:1003F000000EB96F800EBA6F3F0EBB6F000EA06F7C
:10040000000E9F6F670E9919D8B409EF82F00BEFB9
:1004100082F00FEF82F09F519D27A0519E23000E86
:10042000A86F000EA76FB2C5A9F5B3C5AAF5B4C5EC
:10043000ABF5B5C5ACF5B8C5A3F5B9C5A4F5BAC556
:10044000A5F5BBC5A6F5A1EF82F0A9C560F5AAC5C3
:1004500061F5ABC562F5ACC563F5B8C564F5B9C562
:1004600065F5BAC566F5BBC567F501EC95F060C5E5
:1004700075F561C576F562C577F563C578F5A1ECCC
:100480009AF075C5ADF576C5AEF577C5AFF578C50B
:10049000B0F5ADC504F5AEC505F5AFC506F5B0C5FB
:1004A00007F54BECA0F004C59BF505C59CF5A9C567
:1004B0001DF5AAC51EF5ABC51FF5ACC520F5ADC52C
:1004C00008F5AEC509F5AFC50AF5B0C50BF5B8C559
:1004D00004F5B9C505F5BAC506F5BBC507F51EECAB
:1004E00091F004C521F505C522F506C523F507C51C
:1004F00024F549ECACF01DC5A9F51EC5AAF51FC52C
:10050000ABF520C5ACF5B8C560F5B9C561F5BAC5A0
:1005100062F5BBC563F5000E0501646F000E656FE3
:10052000200E666F410E676F01EC95F060C5B8F55F
:1005300061C5B9F562C5BAF563C5BBF50501A74B41
:10054000A82B9D51A75DA851800A576E9E51800A25
:100550005758D8A0AEEF82F0B0EF82F025EF82F0CE
:10056000B8C504F5B9C505F5BAC506F5BBC507F5A7
:10057000000E086E000E096EA00E0A6E400E0B6E85
:100580001EEC91F004C5ADF505C5AEF506C5AFF599
:1005900007C5B0F5A9C51DF5AAC51EF5ABC51FF564
:1005A000ACC520F5ADC521F5AEC522F5AFC523F527
:1005B000B0C524F5CEECA0F0D8B0E1EF82F0E3EFC7
:1005C00082F0EEEF82F0000E0501AD6F000EAE6F0F
:1005D000000EAF6F000EB06F17EF83F0A9C504F5E2
:1005E000AAC505F5ABC506F5ACC507F5ADC508F55B
:1005F000AEC509F5AFC50AF5B0C50BF5B0ECA6F070
:10060000D8A005EF83F007EF83F017EF83F0050123
:100610009BB10DEF83F00FEF83F017EF83F0000E27
:10062000AD6F000EAE6F000EAF6F000EB06FB2C5B3
:1006300004F5B3C505F5B4C506F5B5C507F5ADC5F3
:1006400008F5AEC509F5AFC50AF5B0C50BF597ECD1
:100650008CF004C5A9F505C5AAF506C5ABF507C517
:10066000ACF5A9C51DF5AAC51EF5ABC51FF5ACC5F2
:1006700020F5000E086E000E096E200E0A6E410E67
:100680000B6EA3C504F5A4C505F5A5C506F5A6C55D
:1006900007F51EEC91F004C521F505C522F506C548
:1006A00023F507C524F5CEECA0F0D8A05AEF83F0CF
:1006B0005CEF83F085EF83F005019F4BA02BA3C572
:1006C00004F5A4C505F5A5C506F5A6C507F5000EF4
:1006D000086E000E096E200E0A6E410E0B6E1EECA7
:1006E00091F004C5A3F505C5A4F506C5A5F507C594
:1006F000A6F5660E05019A19D8A481EF83F083EF61
:1007000083F085EF83F09D4B9E2BA3C5B8F5A4C560
:10071000B9F5A5C5BAF5A6C5BBF59FC590F5A0C5A9
:1007200091F5000E0501986F000E956F000E946F05
:10073000000EA86F000EA76F84EF84F0A9C560F5C6
:10074000AAC561F5ABC562F5ACC563F5B8C564F57E
:10075000B9C565F5BAC566F5BBC567F501EC95F099
:1007600060C575F561C576F562C577F563C578F541
:10077000A1EC9AF075C5ADF576C5AEF577C5AFF5C8
:1007800078C5B0F5ADC504F5AEC505F5AFC506F540
:10079000B0C507F54BECA0F005BEDAEF83F00550CD
:1007A00007E10A0E045CD8B0D8EF83F0DAEF83F0EB
:1007B000EAEF83F0ADC504F5AEC505F5AFC506F5A6
:1007C000B0C507F54BECA0F004C59BF505C59CF53D
:1007D000EFEF83F0000E05019C6F090E9B6F050182
:1007E0009851D8A4F6EF83F0F8EF83F020EF84F06F
:1007F00091BFFFEF83F0FDEF83F020EF84F0400E18
:10080000B625D96E060EB721DA6E2E0EDF6EB64B08
:10081000B72BA107D8A0A207010E986F20EF84F094
:10082000400EB625D96E060EB721DA6E300EDF6E99
:10083000B64BB72BA107D8A0A2079407D8A095075D
:1008400094519511D8A427EF84F029EF84F010EF8C
:1008500084F0400EB625D96E060EB721DA6E9B5194
:10086000300FDF6EB64BB72BA107D8A0A207A9C5E2
:100870001DF5AAC51EF5ABC51FF5ACC520F5ADC568
:1008800008F5AEC509F5AFC50AF5B0C50BF5B8C595
:1008900004F5B9C505F5BAC506F5BBC507F51EECE7
:1008A00091F004C521F505C522F506C523F507C558
:1008B00024F549ECACF01DC5A9F51EC5AAF51FC568
:1008C000ABF520C5ACF5B8C560F5B9C561F5BAC5DD
:1008D00062F5BBC563F5000E0501646F000E656F20
:1008E000200E666F410E676F01EC95F060C5B8F59C
:1008F00061C5B9F562C5BAF563C5BBF505019007D9
:10090000D8A09107A74BA82B9D51A75DA851800A9D
:10091000576E9E51800A5758D8B091EF84F093EFEC
:1009200084F0A1EF84F0B7BF9FEF84F0B75109E1E5
:100930004B0EB65DD8A09FEF84F0A1EF84F09EEF40
:1009400083F0000EA86F4F0EA76F400EA725D96E3B
:10095000060EA821DA6EDF6A400E576E060E586E3C
:10096000B651575EB751585AA7515724046EA85133
:100970005820056E400E066E060E076EB6C508F5C9
:10098000B7C509F58AECABF00501B651A75DB66FA6
:10099000B751A859B76FB151D8A4D1EF84F0D4EFB3
:1009A00084F0010ED5EF84F0000EA76FA86BB15153
:1009B000D8B4DDEF84F0DFEF84F0EAEF84F0B6071F
:1009C000D8A0B707400EB625D96E060EB721DA6E4D
:1009D000B1C5DFF4A751A15FA851A25B89C514F589
:1009E0008AC515F5400EB625166E060EB721176E90
:1009F000A1C518F5A2C519F557ECA7F012002AEC0D
:100A0000AEF0D68E000E056EC80E046EA7ECADF0EB
:100A1000FDECA5F002ECACF0000E0E6E840E0F6E35
:100A2000FF0E106E000EB3EC9FF0020E0E6E620E03
:100A30000F6EFF0E106E000EB3EC9FF0040E0E6EE4
:100A40000D0E0F6EFF0E106E000EB3EC9FF0060E33
:100A50000E6E0D0E0F6EFF0E106E000EB3EC9FF0BB
:100A6000D00E0601E56F000E066E760E056EE50EE1
:100A7000076E060E086E000E0A6E010E096ED50E88
:100A80000B6E060E0C6E000E0E6E010E0D6EDF0E5E
:100A9000F66EFE0EF76E000EF86E02D85DEF85F072
:100AA0000500FA6E0900F550FD6E0900F550FE6E66
:100AB0000900F550FF6EFA501200E80EF66EFE0EB9
:100AC000F76E000EF86E02D873EF85F00500FA6E2F
:100AD0000900F550FD6E0900F550FE6E0900F55055
:100AE000FF6EFA5012000009D8A479EF85F07BEF71
:100AF00085F05DEF85F0600E0601D519D8B483EF5F
:100B000085F085EF85F090EF85F0020E0E6EE20E17
:100B10000F6EFF0E106E000EB3EC9FF08EEF85F09F
:100B2000000EE56F000EE66F180EE76F000E066E02
:100B3000100E056EE50E076E060E086E000E0A6EAC
:100B4000030E096ED90EF66EFE0EF76E000EF86EED
:100B500002D8B8EF85F00500FA6E0900F550FD6E79
:100B60000900F550FE6E0900F550FF6EFA501200B4
:100B7000E80EF66EFE0EF76E000EF86E02D8CEEF9F
:100B800085F00500FA6E0900F550FD6E0900F5507C
:100B9000FE6E0900F550FF6EFA5012000009D8A44D
:100BA000D4EF85F0D6EF85F0B8EF85F0010E0601A1
:100BB000E56F000EE66F040EE76F000E066E1F0E67
:100BC000056EE50E076E060E086E000E0A6E020E2A
:100BD000096ED90EF66EFE0EF76E000EF86E02D894
:100BE000FFEF85F00500FA6E0900F550FD6E090073
:100BF000F550FE6E0900F550FF6EFA501200E80E37
:100C0000F66EFE0EF76E000EF86E02D815EF86F047
:100C10000500FA6E0900F550FD6E0900F550FE6EF4
:100C20000900F550FF6EFA5012000009D8A41BEF1E
:100C300086F01DEF86F0FFEF85F0020E0601E56FEE
:100C4000050EE66FA00EE76F000E066E1F0E056E16
:100C5000E50E076E060E086E000E0A6E030E096E94
:100C6000D90EF66EFE0EF76E000EF86E02D846EF45
:100C700086F00500FA6E0900F550FD6E0900F5508A
:100C8000FE6E0900F550FF6EFA501200E80EF66E87
:100C9000FE0EF76E000EF86E02D85CEF86F00500CF
:100CA000FA6E0900F550FD6E0900F550FE6E090060
:100CB000F550FF6EFA5012000009D8A462EF86F0DA
:100CC00064EF86F046EF86F0030E0601E56F000E36
:100CD000E66F100EE76F000E066E1F0E056EE50E36
:100CE000076E060E086E000E0A6E030E096ED90E10
:100CF000F66EFE0EF76E000EF86E02D88DEF86F0DF
:100D00000500FA6E0900F550FD6E0900F550FE6E03
:100D10000900F550FF6EFA501200E80EF66EFE0E56
:100D2000F76E000EF86E02D8A3EF86F00500FA6E9B
:100D30000900F550FD6E0900F550FE6E0900F550F2
:100D4000FF6EFA5012000009D8A4A9EF86F0ABEFAD
:100D500086F08DEF86F0040E0601E56F050EE66F56
:100D6000A00EE76F000E066E1F0E056EE50E076EF5
:100D7000060E086E000E0A6E030E096ED90EF66E90
:100D8000FE0EF76E000EF86E02D8D4EF86F0050066
:100D9000FA6E0900F550FD6E0900F550FE6E09006F
:100DA000F550FF6EFA501200E80EF66EFE0EF76E6A
:100DB000000EF86E02D8EAEF86F00500FA6E090020
:100DC000F550FD6E0900F550FE6E0900F550FF6EFE
:100DD000FA5012000009D8A4F0EF86F0F2EF86F086
:100DE000D4EF86F01B0E0601E56F800EE66F000E55
:100DF000066E0E0E056EE50E076E060E086E000EF0
:100E00000A6E020E096ED90EF66EFE0EF76E000E19
:100E1000F86E02D819EF87F00500FA6E0900F55058
:100E2000FD6E0900F550FE6E0900F550FF6EFA5098
:100E30001200E80EF66EFE0EF76E000EF86E02D887
:100E40002FEF87F00500FA6E0900F550FD6E0900DE
:100E5000F550FE6E0900F550FF6EFA5012000009C1
:100E6000D8A435EF87F037EF87F019EF87F00BEC58
:100E7000ADF0000E72ECA4F00001848186838691AF
:100E8000000E056E640E046EA7ECADF09EECA5F0AE
:100E90008EECA8F0CEA24FEF87F051EF87F0C4EFB1
:100EA00087F0CEA456EF87F058EF87F0C4EF87F0B5
:100EB000CFA65DEF87F05FEF87F0C4EF87F0CEAA93
:100EC00064EF87F066EF87F0C4EF87F0CFAA6BEF8F
:100ED00087F06DEF87F0C4EF87F00501FE05D8A419
:100EE00074EF87F076EF87F07CEF87F0C194C196BE
:100EF000C398C39A000EFE6FC1B481EF87F084EFF0
:100F000087F0010E85EF87F0000EFF0A596E5946F3
:100F10005946C1505918FB0B5918C16EC1B693EF11
:100F200087F096EF87F0010E97EF87F0000EFF0A2B
:100F3000596E594659465946C1505918F70B591818
:100F4000C16EC3B8A6EF87F0A9EF87F0010EAAEF34
:100F500087F0000EFF0A596E593AC3505918EF0B2B
:100F60005918C36EC3BAB7EF87F0BAEF87F0010E16
:100F7000BBEF87F0000EFF0A596E593A5946C3502D
:100F80005918DF0B5918C36ECEB2C9EF87F0CBEFFB
:100F900087F0E3EF87F0C1B4D0EF87F0D3EF87F0AD
:100FA000010ED4EF87F0000EFF0A596E59465946DC
:100FB000C1505918FB0B5918C16EC196C398C39AFA
:100FC000010E0501FE6FCEB4E8EF87F0EAEF87F07F
:100FD00003EF88F0C194C1B6F0EF87F0F3EF87F02C
:100FE000010EF4EF87F0000EFF0A596E594659467C
:100FF0005946C1505918F70B5918C16EC398C39A76
:10100000010E0501FE6FCFB608EF88F00AEF88F0F9
:1010100021EF88F0C194C196C3B811EF88F014EFA6
:1010200088F0010E15EF88F0000EFF0A596E593A4C
:10103000C3505918EF0B5918C36EC39A010E05011E
:10104000FE6FCEBA26EF88F028EF88F040EF88F0E8
:10105000C194C196C398C3BA30EF88F033EF88F0DB
:10106000010E34EF88F0000EFF0A596E593A5946C6
:10107000C3505918DF0B5918C36E010E0501FE6FDE
:10108000CFBA45EF88F047EF88F04EEF88F0C18483
:10109000C186C388C38A010E0501FE6FD1B053EF2C
:1010A00088F055EF88F0F1EF88F05C04D8A45BEF8E
:1010B00088F05DEF88F0F1EF88F0000E5C6E020EB4
:1010C0000501FD19D8A467EF88F069EF88F06DEF8E
:1010D00088F0000EFD6FE2EF88F0FD2BE2EF88F064
:1010E000000E0E6E840E0F6EFF0E106E000EB3EC2F
:1010F0009FF0020E0E6E0D0E0F6EFF0E106E000EA4
:10110000B3EC9FF0040E0E6E0D0E0F6EFF0E106E00
:10111000000EB3EC9FF0060E0E6E0D0E0F6EFF0E5E
:10112000106E000EB3EC9FF0F1EF88F0000E0E6E23
:10113000950E0F6EFF0E106E000EB3EC9FF0020EB8
:101140000E6E620E0F6EFF0E106E000EB3EC9FF06F
:10115000040E0E6E510E0F6EFF0E106E000EB3ECED
:101160009FF0060E0E6E730E0F6EFF0E106E000EC9
:10117000B3EC9FF0F1EF88F0000E0E6EA60E0F6E2E
:10118000FF0E106E000EB3EC9FF0020E0E6E1E0EE0
:101190000F6EFF0E106E000EB3EC9FF0040E0E6E7D
:1011A0002F0E0F6EFF0E106E000EB3EC9FF0060EAA
:1011B0000E6E400E0F6EFF0E106E000EB3EC9FF021
:1011C000F1EF88F0FD51000AD8B470EF88F0010A01
:1011D000D8B496EF88F0030AD8B4BCEF88F0F1EFEA
:1011E00088F0D1A0F6EF88F0F8EF88F010EF89F0E2
:1011F0005C50D8A4FEEF88F000EF89F010EF89F082
:10120000010E5C6E10EF89F0CFECA1F040EF87F09B
:1012100087EC99F040EF87F056EC9DF040EF87F0B7
:101220000501FD51000AD8B404EF89F0010AD8B4D1
:1012300008EF89F0030AD8B40CEF89F040EF87F08B
:101240000DEF00F008C615F509C616F50AC617F524
:101250000BC618F518341832173216321532000E34
:1012600015242E6E060E16202F6EFF0E1720306EE0
:10127000FF0E1820316E0B0E156E020E166E2EC567
:1012800017F52FC518F530C519F531C51AF51666CD
:101290004CEF89F054EF89F01A341A3219321832AF
:1012A0001732162E47EF89F017C504F518C505F556
:1012B00019C506F51AC507F5020E1B6E2EC51CF5DD
:1012C0002FC51DF530C51EF531C51FF51B666BEF2B
:1012D00089F073EF89F01F341F321E321D321C3229
:1012E0001B2E66EF89F01CC508F51DC509F51EC546
:1012F0000AF51FC50BF5E2ECA9F0156682EF89F03F
:101300008AEF89F007340732063205320432152E8F
:101310007DEF89F004C522F505C523F506C524F542
:1013200007C525F522C504F523C505F524C506F531
:1013300025C507F521EEA0F2DEC408F5DDC409F5E8
:10134000000E09BEFF0E0A6E0B6EE2ECA9F004C59A
:1013500026F505C527F506C528F507C529F521EEAB
:101360009EF2DEC404F5DDC405F5000E05BEFF0ED9
:10137000066E076E2EC508F52FC509F530C50AF5AE
:1013800031C50BF5E2ECA9F0D8900434156E0534A4
:10139000166E0634176E0734186E26501524266E06
:1013A00027501620276E28501720286E2950182005
:1013B000296E06019C51156E9D51166E176A186AAA
:1013C00016C518F515C517F5166A156A020E196EB9
:1013D00026C51AF527C51BF528C51CF529C51DF519
:1013E0001966F5EF89F0FDEF89F01D341D321C32CE
:1013F0001B321A32192EF0EF89F015501A24266E7E
:1014000016501B20276E17501C20286E18501D20C8
:10141000296E0D0E156E020E166E2EC517F52FC510
:1014200018F530C519F531C51AF516661AEF8AF0A8
:1014300022EF8AF01A341A32193218321732162E65
:1014400015EF8AF017C504F518C505F519C506F599
:101450001AC507F5020E1B6E2EC51CF52FC51DF50E
:1014600030C51EF531C51FF51B6639EF8AF041EF17
:101470008AF01F341F321E321D321C321B2E34EFF5
:101480008AF01CC508F51DC509F51EC50AF51FC55E
:101490000BF5E2ECA9F0156650EF8AF058EF8AF0F0
:1014A00007340732063205320432152E4BEF8AF02C
:1014B00004C522F505C523F506C524F507C525F5A0
:1014C000120E156E030E166E21EE9AF2DEC404F5AE
:1014D000DDC405F5000E05BEFF0E066E076E22C5C3
:1014E00008F523C509F524C50AF525C50BF5E2EC79
:1014F000A9F004C517F505C518F506C519F507C502
:101500001AF5166686EF8AF08EEF8AF01A341A32D0
:10151000193218321732162E81EF8AF021EE98F226
:10152000DEC404F5DDC405F5000E05BEFF0E066E33
:10153000076E2EC508F52FC509F530C50AF531C56A
:101540000BF5E2ECA9F0073407320632053204321B
:10155000045017241B6E055018201C6E06501920CD
:101560001D6E07501A201E6E1566B9EF8AF0C1EF86
:101570008AF01E341E321D321C321B32152EB4EF7F
:101580008AF01BC52EF51CC52FF51DC530F51EC5EF
:1015900031F50F0E156E000E2E24046E800E2F20D6
:1015A000056E000E3020066E000E3120076E96C6C6
:1015B00008F597C609F50A6A0B6AE2ECA9F0156608
:1015C000E4EF8AF0ECEF8AF0073407320632053296
:1015D0000432152EDFEF8AF004C52EF505C52FF570
:1015E00006C530F507C531F52E502F1030103110DB
:1015F000D8A4FDEF8AF0FFEF8AF009EF8BF0000E20
:10160000116E000E126E000E136E000E146E96EF29
:101610008CF00C0E156E26C516F527C517F528C5D6
:1016200018F529C519F5156618EF8BF020EF8BF02A
:1016300019341932183217321632152E13EF8BF077
:101640000CC61AF50DC61BF50EC61CF50FC61DF50A
:101650001A1E1B1E1C1E1D1E1A2A000E1B221C22D7
:101660001D2216501A5C1E6E17501B581F6E185004
:101670001C58206E19501D58216E000E1E24046E39
:10168000000E1F20056E100E2020066E000E212079
:10169000076E350E086E0C0E096E000E0A6E000EF7
:1016A0000B6EE2ECA9F004C52AF505C52BF506C5BD
:1016B0002CF507C52DF5800E2D5CD8B062EF8BF0B0
:1016C00064EF8BF081EF8BF0D8902A34046E2B34CA
:1016D000056E2C34066E2D34076E2EC508F52FC509
:1016E00009F530C50AF531C50BF505ECA7F004C5C1
:1016F0002AF505C52BF506C52CF507C52DF59CEF7C
:101700008BF02AC504F52BC505F52CC506F52DC5AE
:1017100007F52EC508F52FC509F530C50AF531C501
:101720000BF505ECA7F0D89004342A6E05342B6E27
:1017300006342C6E07342D6E2AC515F52BC516F50B
:101740002CC517F52DC518F5040EACEF8BF0D8900D
:101750001832173216321532E82EA7EF8BF015C566
:1017600004F516C505F517C506F518C507F52AC50C
:1017700019F52BC51AF52CC51BF52DC51CF5040E46
:10178000C7EF8BF0D8901C321B321A321932E82E78
:10179000C2EF8BF019C508F51AC509F51BC50AF586
:1017A0001CC50BF5E2ECA9F00E0EDCEF8BF0D89027
:1017B0000732063205320432E82ED7EF8BF004C52B
:1017C00022F505C523F506C524F507C525F50C0E3C
:1017D000156E21EEA6F2DEC404F5DDC405F5000E9B
:1017E00005BEFF0E066E076E22C508F523C509F576
:1017F00024C50AF525C50BF5E2ECA9F0156603EF43
:101800008CF00BEF8CF007340732063205320432CD
:10181000152EFEEF8BF004C52EF505C52FF506C578
:1018200030F507C531F50D0E156E2AC516F52BC519
:1018300017F52CC518F52DC519F5030E25EF8CF0FD
:10184000D8901932183217321632E82E20EF8CF069
:1018500016C504F517C505F518C506F519C507F52C
:1018600021EEA4F2DEC408F5DDC409F5000E09BEC0
:10187000FF0E0A6E0B6EE2ECA9F0156642EF8CF0DB
:101880004AEF8CF007340732063205320432152E47
:101890003DEF8CF004C526F505C527F506C528F5EE
:1018A00007C529F5040E156EA2C616F5A3C617F5D1
:1018B000000E17BEFF0E186E196E2E5016241A6EEB
:1018C0002F5017201B6E305018201C6E31501920DD
:1018D0001D6E26501A241E6E27501B201F6E285086
:1018E0001C20206E29501D20216E15667AEF8CF089
:1018F00082EF8CF02134213220321F321E32152E1D
:1019000075EF8CF02A501E242A6E2B501F202B6E50
:101910002C5020202C6E2D5021202D6E2AC511F523
:101920002BC512F52CC513F52DC514F51200075063
:10193000800B106E07500724126E06AEA2EF8CF0DB
:10194000A4EF8CF0A5EF8CF012801250D8B4ABEF5E
:101950008CF0ADEF8CF0C2EF8CF01228D8A4B3EF6E
:101960008CF0B5EF8CF0BDEF8CF0000E046E000E25
:10197000056E000E066E000E076E068E000E076ED8
:10198000CAEF8CF0000E046E000E056E000E066E9F
:10199000000E076E0B50800B116E10501118D8B44A
:1019A000D4EF8CF0D6EF8CF0D7EF8CF0108C0B507E
:1019B0000B24116E0AAEDFEF8CF0E1EF8CF0E2EF5A
:1019C0008CF011801150D8B4E8EF8CF0EAEF8CF075
:1019D000FFEF8CF01128D8A4F0EF8CF0F2EF8CF030
:1019E000FAEF8CF0000E086E000E096E000E0A6E03
:1019F000000E0B6E0A8E000E0B6E07EF8DF0000EC0
:101A0000086E000E096E000E0A6E000E0B6E12506C
:101A1000115CD8B00EEF8DF010EF8DF037EF8DF038
:101A200010AC15EF8DF017EF8DF019EF8DF0800EE3
:101A3000101A12C513F511C512F513C511F504C519
:101A400013F508C504F513C508F505C513F509C553
:101A500005F513C509F506C513F50AC506F513C541
:101A60000AF507C513F50BC507F513C50BF5000EF1
:101A7000136E125011C50CF50D6A0C5E000E0D5A56
:101A80000DBE4CEF8DF00D5009E11A0E0C5CD8A084
:101A90004CEF8DF04EEF8DF085EF8DF0045005107A
:101AA00006100710D8A457EF8DF05AEF8DF0010EF5
:101AB0005BEF8DF0000E136E000E046E000E056ECF
:101AC000000E066E000E076E11C512F58EEF8DF03A
:101AD00013A06DEF8DF06FEF8DF075EF8DF0D89056
:101AE00013300109136E77EF8DF0D890133204A0F4
:101AF0007CEF8DF07EEF8DF07FEF8DF0138E07344D
:101B00000732063205320432122A1150125CD8A074
:101B10008CEF8DF08EEF8DF068EF8DF010BC93EFB1
:101B20008DF095EF8DF0D5EF8DF01250D8A49BEF8E
:101B30008DF09DEF8DF0A7EF8DF0000E046E000E7E
:101B4000056E000E066E000E076EF6EF8EF0085062
:101B50000426095005220A5006220B50072207A02E
:101B6000B4EF8DF0B6EF8DF062EF8EF013A0BBEF07
:101B70008DF0BDEF8DF0C3EF8DF0D89013300109DB
:101B8000136EC5EF8DF0D890133204A0CAEF8DF01C
:101B9000CCEF8DF0CDEF8DF0138E07340732063287
:101BA00005320432122A62EF8EF00850045C0950AC
:101BB00005580A5006580750800A0C6E0B50800AD0
:101BC0000C58D8B0E6EF8DF0E8EF8DF013EF8EF003
:101BD0000450085C0C6E055009580D6E06500A58EA
:101BE0000E6E07500B580F6EFF0E0C24046EFF0E86
:101BF0000D20056EFF0E0E20066EFF0E0F20076EE5
:101C0000800E101A136C1350D8A409EF8EF00BEF4E
:101C10008EF01BEF8EF0010E0426000E0522062228
:101C200007221BEF8EF00850045E0950055A0A5037
:101C3000065A0B50075A0450051006100710D8A476
:101C400024EF8EF026EF8EF05BEF8EF01350D8A4C9
:101C50002CEF8EF02EEF8EF05BEF8EF0000E046E08
:101C6000000E056E000E066E000E076EF6EF8EF08B
:101C7000D890043605360636073613AE42EF8EF09E
:101C800044EF8EF045EF8EF0048013A04AEF8EF003
:101C90004CEF8EF050EF8EF0D880133652EF8EF06E
:101CA000D89013361250D8B458EF8EF05AEF8EF009
:101CB0005BEF8EF0120606AE60EF8EF062EF8EF0F4
:101CC00038EF8EF0000E116E13AE69EF8EF06BEFF1
:101CD0008EF083EF8EF013C50CF57F0E0C16D8B482
:101CE00074EF8EF076EF8EF07AEF8EF0010E116EBB
:101CF00083EF8EF004A07FEF8EF081EF8EF083EF04
:101D00008EF076EF8EF01150D8B489EF8EF08BEF15
:101D10008EF0B6EF8EF0010E0426000E052206228C
:101D2000072207A096EF8EF098EF8EF0B6EF8EF0B8
:101D300004C50CF505C50DF506C50EF507C50FF56F
:101D40000F340F320E320D320C320CC504F50DC5B6
:101D500005F50EC506F50FC507F51228D8B4B3EF83
:101D60008EF0B5EF8EF0B6EF8EF0122A1228D8B4AE
:101D7000BCEF8EF0BEEF8EF0C6EF8EF01250D8A4FE
:101D8000C4EF8EF0C6EF8EF0D8EF8EF0000E046E2A
:101D9000000E056E000E066E000E076E1250D8A4DF
:101DA000D4EF8EF0D6EF8EF0D8EF8EF0000E106EDE
:101DB00012A0DDEF8EF0DFEF8EF0E2EF8EF0068EF8
:101DC000E3EF8EF0069ED8901230076E10AEEBEF68
:101DD0008EF0EDEF8EF0EEEF8EF0078E04C504F579
:101DE00005C505F506C506F507C507F51200000E81
:101DF00006010825416ED40E0921426EFE0E0A210D
:101E0000436EFF0E0B21446E0B0E146EAB51046E2D
:101E1000056A066A076A41C508F542C509F543C562
:101E20000AF544C50BF5E2ECA9F014661AEF8FF041
:101E300022EF8FF007340732063205320432142EB7
:101E400015EF8FF0000E04243D6E800E05203E6ECF
:101E5000000E06203F6E000E0720406E0A0E146E24
:101E60000601B051046E000E04BEFF0E056E066E34
:101E7000076E41C508F542C509F543C50AF544C5D5
:101E80000BF5E2ECA9F0146648EF8FF050EF8FF0FD
:101E900007340732063205320432142E43EF8FF036
:101EA00004C52DF505C52EF506C52FF507C530F57A
:101EB0000A0E146E3DC504F53EC505F53FC506F591
:101EC00040C507F52DC508F52EC509F52FC50AF53E
:101ED00030C50BF5E2ECA9F0146671EF8FF079EFE5
:101EE0008FF007340732063205320432142E6CEFBD
:101EF0008FF0000E0424316E000E0520326E200E8D
:101F00000620336E000E0720346E0F0E146E21EE85
:101F1000AEF2DEC404F5DDC405F5000E05BEFF0E0D
:101F2000066E076E41C508F542C509F543C50AF5B9
:101F300044C50BF5E2ECA9F00601AC51156EAD51AC
:101F4000166E176A186A140ED8901536163617369C
:101F50001836E82EA4EF8FF010C619F511C61AF541
:101F600012C61BF513C61CF50E0ED89019361A367C
:101F70001B361C36E82EB5EF8FF01550195C1D6E20
:101F800016501A581E6E17501B581F6E18501C58AA
:101F9000206E04501D5C216E05501E58226E0650A6
:101FA0001F58236E07502058246E000E2124256EE2
:101FB000400E2220266E000E2320276E000E2420C5
:101FC000286E1466E6EF8FF0EEEF8FF0283428329B
:101FD000273226322532142EE1EF8FF025C535F554
:101FE00026C536F527C537F528C538F50E0E146E0B
:101FF00031C504F532C505F533C506F534C507F519
:1020000021EEA9F2DEC408F5DDC409F5000E09BE13
:10201000FF0E0A6E0B6EE2ECA9F0000E0424156EA2
:10202000200E0520166E000E0620176E000E0720EB
:10203000186E14661EEF90F026EF90F018341832E8
:10204000173216321532142E19EF90F015C539F5E6
:1020500016C53AF517C53BF518C53CF535C504F569
:1020600036C505F537C506F538C507F539C508F590
:102070003AC509F53BC50AF53CC50BF5E2ECA9F0FC
:1020800004C541F505C542F506C543F507C544F548
:10209000070E146E0F0E156E41C516F542C517F5E5
:1020A00043C518F544C519F5156659EF90F061EF71
:1020B00090F019341932183217321632152E54EFA7
:1020C00090F016C504F517C505F518C506F519C530
:1020D00007F50F0E1A6E41C51BF542C51CF543C529
:1020E0001DF544C51EF51A6678EF90F080EF90F06C
:1020F0001E341E321D321C321B321A2E73EF90F02A
:102100001BC508F51CC509F51DC50AF51EC50BF54F
:10211000E2ECA9F014668FEF90F097EF90F007349F
:102120000732063205320432142E8AEF90F004C5CD
:102130003DF505C53EF506C53FF507C540F5040E5E
:10214000146E3DC504F53EC505F53FC506F540C511
:1021500007F50601A851086E096A0A6A0B6AE2ECE3
:10216000A9F01466B6EF90F0BEEF90F00734073296
:10217000063205320432142EB1EF90F00450415C67
:10218000416E05504258426E06504358436E075008
:102190004458446E44BECFEF90F0D1EF90F0D3EFAF
:1021A00090F0DBEF90F0000E416E000E426E000EDC
:1021B000436E000E446E44BEECEF90F04104000EFE
:1021C0004258000E4358190E4458D8B0EAEF90F028
:1021D000ECEF90F0EEEF90F0F6EF90F0000E416E25
:1021E000000E426E000E436E190E446E0C0E146EFD
:1021F00041C515F542C516F543C517F544C518F593
:10220000146605EF91F00DEF91F018341832173283
:1022100016321532142E00EF91F015C529F516C5AA
:102220002AF517C52BF518C52CF529C510F52AC5B3
:1022300011F52BC512F52CC513F512000750800BB4
:10224000106E07500724166E06AE29EF91F02BEFA3
:1022500091F02CEF91F016801650D8B432EF91F037
:1022600034EF91F047EF91F01628D8A43AEF91F0AF
:102270003CEF91F044EF91F0000E046E000E056EFD
:10228000000E066E000E076E068E4FEF91F0000EE8
:10229000046E000E056E000E066E000E076E0B50EB
:1022A000800B101A0B500B24116E0AAE5AEF91F0EE
:1022B0005CEF91F05DEF91F011801150D8B463EFB5
:1022C00091F065EF91F078EF91F01128D8A46BEFC1
:1022D00091F06DEF91F075EF91F0000E086E000E29
:1022E000096E000E0A6E000E0B6E0A8E80EF91F0E2
:1022F000000E086E000E096E000E0A6E000E0B6EC8
:102300001150D8B486EF91F088EF91F090EF91F0F2
:102310001650D8A48EEF91F090EF91F09AEF91F0D3
:10232000000E046E000E056E000E066E000E076EA7
:1023300032EF93F00A500402F3C41BF5F4C41CF509
:102340001B50126E136A146A156A1C50176E186AB5
:10235000196A1A6A09500502F3C41BF5F4C41CF586
:102360001B501226000E1322142215221C50172671
:10237000000E182219221A2208500602F3C41BF577
:10238000F4C41CF51B501226000E13221422152231
:102390001C501726000E182219221A2214C515F5F2
:1023A00013C514F512C513F5126A08500502F3C4DB
:1023B0001BF5F4C41CF51B5012261C501322000EF2
:1023C0001422000E152209500402F3C41BF5F4C4B4
:1023D0001CF51B5012261C501322000E1422000E56
:1023E000152214C515F513C514F512C513F5126A97
:1023F00008500402F3C41BF5F4C41CF51B5012264C
:102400001C501322000E1422000E15220A50050241
:10241000F3C41BF5F4C41CF51B5017261C501822DE
:10242000000E1922000E1A2209500602F3C41BF5F1
:10243000F4C41CF51B5017261C501822000E19223C
:10244000000E1A220A500602F3C41BF5F4C41CF550
:102450001B500C6E1C500D6E0E6A0F6A0EC50FF5E8
:102460000DC50EF50CC50DF50C6A0C5017260D5058
:1024700018220E5019220F501A2212C50CF513C53E
:102480000DF514C50EF515C50FF5190E4DEF92F0AB
:10249000D8900F320E320D320C32E82E48EF92F007
:1024A0000C5017260D5018220E5019220F501A22C8
:1024B00014C515F513C514F512C513F5126A11509C
:1024C00016C50CF50D6A0C26000E0D22820E0C248A
:1024D0001B6EFF0E0D201C6E83EF92F0D890173606
:1024E000183619361A3615AE78EF92F07AEF92F068
:1024F0007BEF92F01780D8901236133614361536CB
:102500001B06D8A01C0619AE88EF92F08AEF92F055
:102510006EEF92F0000E116E15AE91EF92F093EF08
:1025200092F0B7EF92F0FF0E12140C6EFF0E131420
:102530000D6EFF0E14140E6E7F0E15140F6E0C50E0
:102540000D100E100F10D8B4A8EF92F0AAEF92F071
:10255000AEEF92F0010E116EB7EF92F017A0B3EF4D
:1025600092F0B5EF92F0B7EF92F0AAEF92F011501F
:10257000D8B4BDEF92F0BFEF92F0E3EF92F0010E0E
:102580001726000E182219221A221AA0CAEF92F05A
:10259000CCEF92F0E3EF92F017C50CF518C50DF5EE
:1025A00019C50EF51AC50FF50F340F320E320D3264
:1025B0000C320CC517F50DC518F50EC519F50FC56C
:1025C0001AF51B4A1C2A1CBEEEEF92F01C5008E1C3
:1025D0001B28D8A0EEEF92F0F0EF92F0FAEF92F015
:1025E000000E176E000E186E800E196E7F0E1A6E9A
:1025F00028EF93F01CBE07EF93F01C5006E11B047C
:10260000D8B005EF93F007EF93F013EF93F0000EBF
:10261000176E000E186E000E196E000E1A6E000E68
:10262000106E28EF93F01BC516F5FF0E1716FF0E60
:1026300018167F0E1916000E1A1616A022EF93F028
:1026400024EF93F025EF93F0198ED89016301A6E80
:1026500010501A1217C504F518C505F519C506F569
:102660001AC507F51200BEC5D9F4BFC5DAF4DEC439
:10267000F6F4DDC4F7F4000EF86E0800F550250AF4
:10268000D8A445EF93F047EF93F0EAEF94F0BEC57E
:10269000D9F4BFC5DAF4DE2A000EDD22000E5B6E2F
:1026A000000E5A6E5AC5FAF50501F869F969BEC5FA
:1026B0000AF5BFC50BF5C0C50CF5C1C50DF5A5ECF8
:1026C000A3F00AC55AF50BC55BF55BBE6CEF93F042
:1026D0006AEF93F072EF93F00501FA815A6C5B1E7A
:1026E000D8B05B2ABEC5D9F4BFC5DAF4DEC4F6F4AF
:1026F000DDC4F7F4000EF86E0800F5502E0AD8A4D9
:1027000084EF93F086EF93F09BEF93F0BEC5D9F47E
:10271000BFC5DAF4DE2A000EDD22BEC50AF5BFC54C
:102720000BF5C0C50CF5C1C50DF5A5ECA3F00AC5A8
:10273000F8F50BC5F9F5BEC5D9F4BFC5DAF4DEC4AA
:10274000F6F4DDC4F7F4000EF86E0800F550630AE5
:10275000D8A4ADEF93F0AFEF93F0D3EF93F0BEC5F5
:10276000D9F4BFC5DAF4DE2A000EDD22C0C5D9F4E3
:10277000C1C5DAF4DFC4C2F5020EDE26DFC4C3F53C
:10278000000EDD22C2C5D9F4C3C5DAF4DF5005015D
:10279000C86FBCC50DF5BDC50EF5C8C50FF50CEC71
:1027A000A4F000EF95F0BEC5D9F4BFC5DAF4DEC4DD
:1027B000C9F5DDC4CAF5C9C5F6F4CAC5F7F4000EFB
:1027C000F86E0800F550640AD8B4E9EF93F0EBEF27
:1027D00093F0FBEF93F0C9C5F6F4CAC5F7F4000E09
:1027E000F86E0800F550690AD8A4F9EF93F0FBEFF2
:1027F00093F02AEF94F0C0C5D9F4C1C5DAF4DFC470
:10280000C2F5020EDE26DFC4C3F5000EDD22C2C50E
:10281000D9F4C3C5DAF4DEC4C4F5DDC4C5F5010ED0
:102820000501C925C26F000ECA21C36FBEC5D9F408
:10283000BFC5DAF4C2C5DEF4C3C5DDF4BCC51DF501
:10284000BDC51EF5C4C51FF5C5C520F5F4EC9EF049
:1028500000EF95F0BEC5D9F4BFC5DAF4DEC4C9F502
:10286000DDC4CAF5C9C5F6F4CAC5F7F4000EF86EA2
:102870000800F5C4C8F549EF94F0C94BCA2B59EFCD
:1028800094F06C0EC86F59EF94F0000EC86F59EFBA
:1028900094F00501C8514C0AD8B43DEF94F02A0ACF
:1028A000D8B441EF94F00A0AD8B43DEF94F045EF64
:1028B00094F0C9C5F6F4CAC5F7F4000EF86E080026
:1028C000F550660AD8A467EF94F069EF94F0E1EF51
:1028D00094F09FEF94F0C0C5D9F4C1C5DAF4DFC419
:1028E000C2F5040EDE26DFC4C3F5000EDD22C2C52C
:1028F000D9F4C3C5DAF4DEC4C4F5DEC4C5F5DEC45C
:10290000C6F5DEC4C7F5AAEF94F0C0C5D9F4C1C5B9
:10291000DAF4DFC4C2F5040EDE26DFC4C3F5000E10
:10292000DD22C2C5D9F4C3C5DAF4DEC4C4F5DEC401
:10293000C5F5DEC4C6F5DEC4C7F5AAEF94F0C851EC
:102940004C0AD8B485EF94F0200AD8B46BEF94F019
:10295000AAEF94F0010EC925C26F000ECA21C36F01
:10296000BEC5D9F4BFC5DAF4C2C5DEF4C3C5DDF413
:10297000D3EF94F0BCC589F5BDC58AF5C4C58BF508
:10298000C5C58CF5C6C58DF5C7C58EF5C9C5F6F4A8
:10299000CAC5F7F4000EF86E0800F5C48FF500EC18
:1029A00080F000EF95F0C9C5F6F4CAC5F7F4000E43
:1029B000F86E0800F550660AD8B4BAEF94F0E1EF6B
:1029C00094F0BEC5D9F4BFC5DAF4DE2A000EDD22CC
:1029D00000EF95F0BEC5D9F4BFC5DAF4DEC4F6F455
:1029E000DDC4F7F4000EF86E0800F550046E056AB9
:1029F000BCC506F5BDC507F5D7ECA4F0E1EF94F032
:102A0000120005016351800B6C6F63516325736F76
:102A100062AF0DEF95F00FEF95F010EF95F0738129
:102A20007351D8B416EF95F018EF95F02DEF95F09F
:102A30007329D8A41EEF95F020EF95F028EF95F0BC
:102A4000000E606F000E616F000E626F000E636F0C
:102A5000628F000E636F35EF95F0000E606F000E11
:102A6000616F000E626F000E636F6751800B6C1B0D
:102A700067516725746F66AF40EF95F042EF95F0B0
:102A800043EF95F074817451D8B449EF95F04BEF52
:102A900095F060EF95F07429D8A451EF95F053EFBD
:102AA00095F05BEF95F0000E646F000E656F000E01
:102AB000666F000E676F668F000E676F68EF95F0A8
:102AC000000E646F000E656F000E666F000E676F7C
:102AD0006451651166116711D8A471EF95F073EF19
:102AE00095F08BEF95F0000E606F000E616F000E99
:102AF000626F000E636F800E62137F0E63136C5162
:102B0000631360C560F561C561F562C562F563C5B3
:102B100063F5CEEF96F07351D8A491EF95F093EF53
:102B200095F09DEF95F0000E606F000E616F000E46
:102B3000626F000E636FCEEF96F0745173C553F55C
:102B4000546A535E000E545A7F0E53246D6F000E6C
:102B500054206E6F60C568F561C569F562C56AF598
:102B600063C56BF5000E606F000E616F000E626F43
:102B7000000E636F000E6F6F000E706F000E716FAE
:102B8000000E726F000E746FFEEF95F07451D8B4A2
:102B9000CCEF95F0CEEF95F0E5EF95F0D890683753
:102BA00069376A376B37D890603761376237633778
:102BB00072AFDDEF95F0DFEF95F0E0EF95F060811B
:102BC000D8906F377037713772376451685D6551CF
:102BD000695966516A5967516B59D8A0F2EF95F05F
:102BE000F4EF95F0FDEF95F0728D6451685F6551DB
:102BF000695B66516A5B67516B5B742B190E746578
:102C000004EF96F006EF96F0C6EF95F06851691163
:102C10006A116B11D8B40FEF96F011EF96F029EF0F
:102C200096F06F8129EF96F0D89060376137623760
:102C3000633772AF1EEF96F020EF96F021EF96F01B
:102C40006081D8906F377037713772376D07D8A0B1
:102C50006E0762AF2EEF96F030EF96F014EF96F01D
:102C6000000E746F72AF37EF96F039EF96F05DEFAC
:102C700096F0FF0E6F15536EFF0E7015546EFF0E1B
:102C80007115556E7F0E7215566E535054105510B7
:102C90005610D8B44EEF96F050EF96F054EF96F0F1
:102CA000010E746F5DEF96F060A159EF96F05BEF47
:102CB00096F05DEF96F050EF96F07451D8B463EF54
:102CC00096F065EF96F089EF96F0010E6027000E02
:102CD00061236223632363A170EF96F072EF96F095
:102CE00089EF96F060C553F561C554F562C555F599
:102CF00063C556F55634563255325432533253C5A5
:102D000060F554C561F555C562F556C563F56D4B63
:102D10006E2B6EBF94EF96F06E5108E16D29D8A02E
:102D200094EF96F096EF96F0A1EF96F0000E6E6F8E
:102D30006D69000E606F000E616F000E626F000E15
:102D4000636F6EBFAEEF96F06E5106E16D05D8B0C1
:102D5000ACEF96F0AEEF96F0BCEF96F0000E6E6F13
:102D6000000E6D6F000E606F000E616F000E626FDF
:102D7000000E636F000E6C6F6DC573F573A1C3EF2A
:102D800096F0C5EF96F0C8EF96F0628FC9EF96F017
:102D9000629FD8907331636F7FEF95F01200880EB9
:102DA0000601E56F000E066E760E056EE50E076EE7
:102DB000060E086E000E0A6E010E096E120E0B6EE4
:102DC000050E0C6E000E0E6E180E0D6EDF0EF66EFA
:102DD000FE0EF76E000EF86E02D8FCEF96F00500BE
:102DE000FA6E0900F550FD6E0900F550FE6E0900FF
:102DF000F550FF6EFA501200E80EF66EFE0EF76EFA
:102E0000000EF86E02D812EF97F00500FA6E090076
:102E1000F550FD6E0900F550FE6E0900F550FF6E8D
:102E2000FA5012000009D8A418EF97F01AEF97F0A3
:102E3000FCEF96F013500F6E12500601906F0FC505
:102E400091F61550106E0F6A14500F24926F000EF9
:102E50001020936F1750106E0F6A16500F24946F46
:102E6000000E1020956F19500F6E1850966F0FC5F9
:102E700097F61B50106E0F6A1A500F24986F000EB1
:102E80001020996F1D50106E0F6A1C500F249A6FFE
:102E9000000E10209B6F1F50106E0F6A1E500F24E3
:102EA0009C6F000E10209D6F2150106E0F6A2050F5
:102EB0000F249E6F000E10209F6F2350106E0F6A1C
:102EC00022500F24A06F000E1020A16F2550106E0D
:102ED0000F6A24500F24A26F000E1020A36F2750FA
:102EE000106E0F6A26500F24A46F000E1020A56FDD
:102EF0002950106E0F6A28500F24A66F000E102064
:102F0000A76FA10EE56F000E066E760E056EE50E3C
:102F1000076E060E086E000E0A6E010E096E120E86
:102F20000B6E050E0C6E000E0E6E010E0D6EDF0E9A
:102F3000F66EFE0EF76E000EF86E02D8ADEF97F04B
:102F40000500FA6E0900F550FD6E0900F550FE6EA1
:102F50000900F550FF6EFA501200E80EF66EFE0EF4
:102F6000F76E000EF86E02D8C3EF97F00500FA6E08
:102F70000900F550FD6E0900F550FE6E0900F55090
:102F8000FF6EFA5012000009D8A4C9EF97F0CBEFFA
:102F900097F0ADEF97F012C5A8F6E10E0601E56FC8
:102FA000000E066E760E056EE50E076E060E086EB6
:102FB000000E0A6E010E096E120E0B6E050E0C6EDF
:102FC000000E0E6E070E0D6EDF0EF66EFE0EF76E25
:102FD000000EF86E02D8FAEF97F00500FA6E0900BD
:102FE000F550FD6E0900F550FE6E0900F550FF6EBC
:102FF000FA501200E80EF66EFE0EF76E000EF86E36
:1030000002D810EF98F00500FA6E0900F550FD6E39
:103010000900F550FE6E0900F550FF6EFA501200DF
:103020000009D8A416EF98F018EF98F0FAEF97F08F
:103030001350106E0F6A12500F240601A96F000E74
:103040001020AA6F14C5ABF615500F6E106A0F3A18
:10305000103AF00E10160F500F0B1012F00E0F1644
:1030600016C511F50F0E111611500F10AC6F105040
:10307000AD6F17500F6E106A0F3A103AF00E10161F
:103080000F500F0B1012F00E0F1616C511F5113A56
:103090000F0E111611500F10AE6F1050AF6F18C5F4
:1030A000B0F612000B0E146E06019051156E915180
:1030B000166E176A186AD8901534196E16341A6E7F
:1030C00017341B6E18341C6E030E1D6E14C61EF5CD
:1030D00015C61FF516C620F517C621F51D6673EF38
:1030E00098F07BEF98F02134213220321F321E32CB
:1030F0001D2E6EEF98F019501E5C046E1A501F586A
:10310000056E1B502058066E1C502158076E21EE8C
:1031100092F2DEC408F5DDC409F5000E09BEFF0E0B
:103120000A6E0B6EE2ECA9F0146699EF98F0A1EF2D
:1031300098F007340732063205320432142E94EF29
:1031400098F004C527F505C528F506C529F507C576
:103150002AF50C0E146E06019051156E9151166EE3
:10316000176A186A040E196E14C61AF515C61BF5EF
:1031700016C61CF517C61DF51966C1EF98F0C9EF04
:1031800098F01D341D321C321B321A32192EBCEF3E
:1031900098F015501A5C046E16501B58056E1750A7
:1031A0001C58066E18501D58076E060190511E6E71
:1031B00091511F6E206A216A040E226E14C623F5F7
:1031C00015C624F516C625F517C626F52266EBEFBB
:1031D00098F0F3EF98F02634263225322432233249
:1031E000222EE6EF98F01E50235C086E1F502458E4
:1031F000096E205025580A6E215026580B6EE2ECBD
:10320000A9F0146606EF99F00EEF99F00734073233
:10321000063205320432142E01EF99F004C533F55D
:1032200005C534F506C535F507C536F50E0E146E21
:1032300033C504F534C505F535C506F536C507F5BE
:1032400021EE94F2DEC408F5DDC409F5000E09BED6
:10325000FF0E0A6E0B6EE2ECA9F0146632EF99F0E5
:103260003AEF99F007340732063205320432142E51
:103270002DEF99F004C52BF505C52CF506C52DF5E8
:1032800007C52EF52B5027240601086F2C50282047
:10329000096F2D5029200A6F2E502A200B6F08C667
:1032A00004F509C605F50AC606F50BC607F5050EB1
:1032B000086E000E096E000E0A6E000E0B6EE2EC38
:1032C000A9F0800E0424146E000E0520156E000E69
:1032D0000620166E000E0720176E15C514F516C5CC
:1032E00015F517C516F5176A16BE176814C52FF51C
:1032F00015C530F516C531F517C532F52FC510F5D2
:1033000030C511F531C512F532C513F51200050EA1
:103310000601E56F000E066E1F0E056EE50E076EC8
:10332000060E086E000E0A6E010E096ED50E0B6EAB
:10333000060E0C6E000E0E6E020E0D6EDF0EF66E99
:10334000FE0EF76E000EF86E02D8B4EF99F005008D
:10335000FA6E0900F550FD6E0900F550FE6E090089
:10336000F550FF6EFA501200E80EF66EFE0EF76E84
:10337000000EF86E02D8CAEF99F00500FA6E090047
:10338000F550FD6E0900F550FE6E0900F550FF6E18
:10339000FA5012000009D8A4D0EF99F0D2EF99F0BA
:1033A000B4EF99F00601D5510701786F0601D651A7
:1033B0003B6F78C73CF63BC678F73CC679F7040EFE
:1033C00007017A6FD890793378337A2FE2EF99F04A
:1033D00078C73BF679C73CF6FF0E06013B17000E97
:1033E0003C17040EE56F000E066E100E056EE50E1E
:1033F000076E060E086E000E0A6E010E096ED50EDF
:103400000B6E060E0C6E000E0E6E020E0D6EDF0EB3
:10341000F66EFE0EF76E000EF86E02D81DEF9AF0F3
:103420000500FA6E0900F550FD6E0900F550FE6EBC
:103430000900F550FF6EFA501200E80EF66EFE0E0F
:10344000F76E000EF86E02D833EF9AF00500FA6EB0
:103450000900F550FD6E0900F550FE6E0900F550AB
:10346000FF6EFA5012000009D8A439EF9AF03BEF32
:103470009AF01DEF9AF00601D6510701796F786B2B
:103480000601D5510701782506013D6F000E0701A1
:10349000792106013E6F080EBFECADF004C539F688
:1034A00005C53AF6B10E0501D36F060ED46FF60EC0
:1034B000D56FFF0ED66F3BC6D7F53CC6D8F562EC8C
:1034C000ABF0020E0E6E030E0F6EB10E106E060EF6
:1034D000116E600E33ECA3F0B10E0501D36F060E32
:1034E000D46FFA0ED56FFF0ED66F3DC6D7F53EC628
:1034F000D8F562ECABF0060E0E6E040E0F6EB10E38
:10350000106E060E116E580E33ECA3F0B10E0501CD
:10351000D36F060ED46FFA0ED56FFF0ED66F39C675
:10352000D7F53AC6D8F562ECABF0040E0E6E040E79
:103530000F6EB10E106E060E116E580E33ECA3F026
:10354000120000C685F501C686F502C687F503C6DA
:1035500088F575C585F576C586F577C587F578C58F
:1035600088F5810E0501796FFF0E7A6F85C57BF5B1
:1035700086C57CF587C57DF588C57EF5180EC6EF36
:103580009AF0D8907E337D337C337B33E82EC1EFC5
:103590009AF07B517925836F000E7A21846F84BF66
:1035A000DBEF9AF0845109E1170E835DD8A0DBEFC1
:1035B0009AF0DDEF9AF0E7EF9AF075C575F576C5EC
:1035C00076F577C577F578C578F5ABEF9BF084BFD6
:1035D000ECEF9AF0EEEF9AF05FEF9BF083C579F590
:1035E000FF0E7A6FFF0E7B6F7F0E7C6F000E7D6F7C
:1035F0007967FDEF9AF005EF9BF07D357D337C33E5
:103600007B337A33792FF8EF9AF07AC57FF57BC553
:1036100080F57CC581F57DC582F505017F51851555
:10362000796F805186157A6F815187157B6F825132
:1036300088157C6F79517A117B117C11D8A423EF06
:103640009BF025EF9BF027EF9BF0DDEF9AF085C50F
:1036500079F586C57AF587C57BF588C57CF5200E9A
:1036600037EF9BF0D8907C337B337A337933E82E75
:1036700032EF9BF079517A117B117C11D8B443EF72
:103680009BF045EF9BF04DEF9BF07F5185278051DC
:10369000862381518723825188237F1D796F801D66
:1036A0007A6F811D7B6F821D7C6F795185177A51EE
:1036B00086177B5187177C518817A3EF9BF085C530
:1036C00079F586C57AF587C57BF588C57CF5200E2A
:1036D0006FEF9BF0D8907C337B337A337933E82ECD
:1036E0006AEF9BF079517A117B117C11D8A47BEFA2
:1036F0009BF07DEF9BF087EF9BF0000E856F000E37
:10370000866F000E876F000E886FA3EF9BF0D89036
:103710008535796F86357A6F87357B6F88357C6F15
:1037200079517A117B117C11D8B499EF9BF09BEF02
:103730009BF0A3EF9BF0000E856F000E866F800E4E
:10374000876FBF0E886F85C575F586C576F587C509
:1037500077F588C578F512004D6E4D50D8B4B3EFAB
:103760009BF0B5EF9BF0D7EF9BF048BEBCEF9BF012
:10377000BAEF9BF0D7EF9BF045C549F546C54AF532
:1037800047C54BF548C54CF5491E4A1E4B1E4C1EFD
:10379000492A000E4A224B224C2249C54FF54AC500
:1037A00050F54BC551F54CC552F5DFEF9BF045C5C3
:1037B0004FF546C550F547C551F548C552F545503A
:1037C000461047104810D8A4E8EF9BF0EAEF9BF0B2
:1037D000F4EF9BF0000E456E000E466E000E476E35
:1037E000000E486E85EF9CF0960E4E6EFEEF9BF03D
:1037F0004E2AD8905232513250324F32000E4F146E
:10380000496E000E50144A6E000E51144B6EFE0E9F
:1038100052144C6E49504A104B104C10D8A413EF60
:103820009CF015EF9CF0F8EF9BF023EF9CF04E2AF4
:10383000010E4F26000E502251225222D8905232B1
:10384000513250324F32000E4F14496E000E501458
:103850004A6E000E51144B6EFF0E52144C6E4950BE
:103860004A104B104C10D8A438EF9CF03AEF9CF063
:1038700017EF9CF042EF9CF04E06D8904F36503632
:103880005136523651BE47EF9CF049EF9CF051EF54
:103890009CF0020E4E604FEF9CF051EF9CF03CEF1D
:1038A0009CF04EB056EF9CF058EF9CF059EF9CF016
:1038B000519ED8904E324EC549F54A6A4B6A4C6AC1
:1038C00049C54CF54B6A4A6A496A49504F124A50F9
:1038D00050124B5051124C5052124D50D8B473EFFD
:1038E0009CF075EF9CF07DEF9CF048BE7CEF9CF067
:1038F0007AEF9CF07DEF9CF0528E4FC545F550C598
:1039000046F551C547F552C548F51200F50E0601BA
:10391000E56FFCC5E6F6000E066E760E056EE50E4A
:10392000076E060E086E000E0A6E020E096ED90EA4
:10393000F66EFE0EF76E000EF86E02D8ADEF9CF03C
:103940000500FA6E0900F550FD6E0900F550FE6E97
:103950000900F550FF6EFA501200E80EF66EFE0EEA
:10396000F76E000EF86E02D8C3EF9CF00500FA6EF9
:103970000900F550FD6E0900F550FE6E0900F55086
:10398000FF6EFA5012000009D8A4C9EF9CF0CBEFEB
:103990009CF0ADEF9CF0F20E0601E56F3FC6E6F637
:1039A000000E066E760E056EE50E076E060E086EAC
:1039B000000E0A6E020E096ED90EF66EFE0EF76E3E
:1039C000000EF86E02D8F2EF9CF00500FA6E0900C6
:1039D000F550FD6E0900F550FE6E0900F550FF6EC2
:1039E000FA501200E80EF66EFE0EF76E000EF86E3C
:1039F00002D808EF9DF00500FA6E0900F550FD6E43
:103A00000900F550FE6E0900F550FF6EFA501200E5
:103A10000009D8A40EEF9DF010EF9DF0F2EF9CF09E
:103A2000F40E0601E56FFBC5E6F6000E066E760E97
:103A3000056EE50E076E060E086E000E0A6E020E8B
:103A4000096ED90EF66EFE0EF76E000EF86E02D8F5
:103A500037EF9DF00500FA6E0900F550FD6E090084
:103A6000F550FE6E0900F550FF6EFA501200E80E98
:103A7000F66EFE0EF76E000EF86E02D84DEF9DF05A
:103A80000500FA6E0900F550FD6E0900F550FE6E56
:103A90000900F550FF6EFA5012000009D8A453EF48
:103AA0009DF055EF9DF037EF9DF01200060E0601D8
:103AB000E56F000E066E0E0E056EE50E076E060E25
:103AC000086E000E0A6E010E096ED50E0B6E060E04
:103AD0000C6E000E0E6E060E0D6EDF0EF66EFE0EF6
:103AE000F76E000EF86E02D883EF9DF00500FA6EB7
:103AF0000900F550FD6E0900F550FE6E0900F55005
:103B0000FF6EFA501200E80EF66EFE0EF76E000E13
:103B1000F86E02D899EF9DF00500FA6E0900F55095
:103B2000FD6E0900F550FE6E0900F550FF6EFA506B
:103B300012000009D8A49FEF9DF0A1EF9DF083EF44
:103B40009DF0D5C637F6D6C638F6D7C635F6D8C6F0
:103B500036F6D9C633F6DAC634F637C604F538C6B3
:103B600005F5010E076E000E066E3CECA5F004C5CF
:103B700078F705C579F7B10E0501D36F060ED46F3E
:103B8000F60ED56FFF0ED66F78C7D7F579C7D8F583
:103B900062ECABF0020E0E6E030E0F6EB10E106EE5
:103BA000060E116E280E33ECA3F035C604F536C6AA
:103BB00005F5010E076E000E066E3CECA5F004C57F
:103BC00078F705C579F7B10E0501D36F060ED46FEE
:103BD000F60ED56FFF0ED66F78C7D7F579C7D8F533
:103BE00062ECABF0040E0E6E030E0F6EB10E106E93
:103BF000060E116E280E33ECA3F033C604F534C65E
:103C000005F5010E076E000E066E3CECA5F004C52E
:103C100078F705C579F7B10E0501D36F060ED46F9D
:103C2000F60ED56FFF0ED66F78C7D7F579C7D8F5E2
:103C300062ECABF0060E0E6E030E0F6EB10E106E40
:103C4000060E116E280E33ECA3F01200F70E0601DB
:103C5000E56F000E066E760E056EE50E076E060E1B
:103C6000086E000E0A6E010E096E1C0E0B6E050E1C
:103C70000C6E000E0E6E080E0D6EDF0EF66EFE0E52
:103C8000F76E000EF86E02D853EF9EF00500FA6E44
:103C90000900F550FD6E0900F550FE6E0900F55063
:103CA000FF6EFA501200E80EF66EFE0EF76E000E72
:103CB000F86E02D869EF9EF00500FA6E0900F55023
:103CC000FD6E0900F550FE6E0900F550FF6EFA50CA
:103CD00012000009D8A46FEF9EF071EF9EF053EF31
:103CE0009EF0235022C50FF5106A116A126A11C5A1
:103CF00012F510C511F50FC510F50F6A0F1006016A
:103D0000106F1050116F1150126F1250136F20C5A9
:103D10000FF5106A116A126A040ED8900F36103629
:103D200011361236E82E8DEF9EF021C513F5133AA9
:103D30000F0E131613500F10146E1050156E1150F5
:103D4000166E1250176E1FC518F5196A1A6A1B6A8B
:103D50000C0ED890183619361A361B36E82EA9EFF5
:103D60009EF014501810146F15501910156F16503E
:103D70001A10166F17501B10176F1DC50FF5106A1C
:103D8000116A126A040ED8900F36103611361236A8
:103D9000E82EC3EF9EF01EC513F5133A0F0E13164F
:103DA00013500F10146E1050156E1150166E1250E5
:103DB000176E1CC518F5196A1A6A1B6A0C0ED89082
:103DC000183619361A361B36E82EDFEF9EF01450DF
:103DD00018100C6F155019100D6F16501A100E6F29
:103DE00017501B100F6F120020BEF9EF9EF0FCEF72
:103DF0009EF0010EFDEF9EF0000E276E0501F9BF4B
:103E000006EF9FF004EF9FF00CEF9FF0000E266E80
:103E1000010E256E10EF9FF0F8C525F5F9C526F5C2
:103E20005AC523F55BC524F52750D8B41AEF9FF087
:103E30001CEF9FF033EF9FF02306D8A024062750F5
:103E4000D8A425EF9FF027EF9FF02DEF9FF0000EF5
:103E5000226E2B0E216E31EF9FF0000E226E2D0E82
:103E6000216E21C527F5000E296E4F0E286E000E1B
:103E700006018F6F6CEF9FF02806D8A02906400E30
:103E80002824D96E060E2920DA6E1FC504F520C538
:103E900005F5000E076E0A0E066E58ECA6F004C576
:103EA0000AF505C50BF55DECADF00A50300FDF6E7D
:103EB0002506D8A026062306D8A024061FC504F58B
:103EC00020C505F5000E076E0A0E066E3CECA5F047
:103ED00004C51FF505C520F529BE77EF9FF02950D1
:103EE00008E12804D8A077EF9FF079EF9FF08FEFDB
:103EF0009FF01F502010D8A480EF9FF082EF9FF01A
:103F00003CEF9FF026BE8FEF9FF0265006E1250480
:103F1000D8B08DEF9FF08FEF9FF03CEF9FF02750D0
:103F2000D8B495EF9FF097EF9FF0A2EF9FF028068F
:103F3000D8A02906400E2824D96E060E2920DA6E54
:103F400027C5DFF41DC514F51EC515F5400E282440
:103F5000166E060E2920176E23C518F524C519F50F
:103F600057ECA7F01200156E000E146E2BEFA0F0A8
:103F700014500F24116E000E1020126E11C5F6F4AD
:103F800012C5F7F4000EF86E240EF76403D0080093
:103F9000F55005D0F6C4E9F4F7C4EAF4EF50E00FA9
:103FA000136E780E1564D7EF9FF0D9EF9FF0DCEF1A
:103FB0009FF0000E156E0E2A0EC50CF5155074EC10
:103FC000AEF0000E166E1350100D910EF324116E0C
:103FD000F50EF420126E16501126000E122211C595
:103FE000F6F412C5F7F4000EF86E0800F5501EEC5A
:103FF000A9F0162A070E166400EFA0F002EFA0F059
:10400000E3EF9FF00E280C6E155074ECAEF0080E26
:10401000166E1350100D910EF324116EF50EF42050
:10402000126E16501126000E122211C5F6F412C59A
:10403000F7F4000EF86E0800F5501EECA9F0162AF1
:104040000F0E166426EFA0F028EFA0F009EFA0F005
:10405000080E1526142A14500F24116E000E10207D
:10406000126E11C5F6F412C5F7F4000EF86E240EA8
:10407000F76403D00800F55005D0F6C4E9F4F7C49E
:10408000EAF4EF500009D8A448EFA0F04AEFA0F0FE
:10409000B8EF9FF01200063407340D6E0D50D8A40F
:1040A00054EFA0F056EFA0F060EFA0F0000E046E09
:1040B000000E056E000E066E000E076ECDEFA0F02E
:1040C00004C508F505C509F506C50AF507C50BF5CC
:1040D000200E70EFA0F0D8900B320A32093208326D
:1040E000E82E6BEFA0F008500C6E068EFF0E041643
:1040F000FF0E0516FF0E0616000E0716960E0D5E35
:104100000DBE87EFA0F085EFA0F09DEFA0F00D5061
:10411000800A970FD8B08FEFA0F091EFA0F093EF47
:10412000A0F056EFA0F0D8900732063205320432E4
:104130000D3E93EFA0F0B5EFA0F01F0E0D64A3EFBE
:10414000A0F0A5EFA0F0ADEFA0F056EFA0F0D89052
:1041500004360536063607360D060D50D8A4B3EFE3
:10416000A0F0B5EFA0F0A7EFA0F00C50D8B4BBEFD3
:10417000A0F0BDEFA0F0C5EFA0F0071E061E051EC3
:10418000046C000E05220622072204C504F505C5AD
:1041900005F506C506F507C507F51200000E1D1446
:1041A000256E000E1E14266E800E1F14276E7F0EC5
:1041B0002014286E2550261027102810D8A4E3EFCD
:1041C000A0F0E5EFA0F0EDEFA0F0000E1D6E000EE8
:1041D0001E6E000E1F6E000E206E000E2114256E46
:1041E000000E2214266E800E2314276E7F0E2414D8
:1041F000286E2550261027102810D8A402EFA1F011
:1042000004EFA1F00CEFA1F0000E216E000E226E63
:10421000000E236E000E246E20AE11EFA1F013EFFE
:10422000A1F01CEFA1F01D6C1E1ED8B01E2A1F1E8F
:10423000D8B01F2A800E205624AE21EFA1F023EF24
:10424000A1F02CEFA1F0216C221ED8B0222A231E4F
:10425000D8B0232A800E2456000E1D1A000E1E1AF6
:10426000000E1F1A800E201A000E211A000E221AAC
:10427000000E231A800E241A21501D5C22501E5855
:1042800023501F5824502058D8B049EFA1F04BEFCD
:10429000A1F04EEFA1F0D8904FEFA1F0D88012001E
:1042A00004C60EF505C60FF506C610F507C611F5CE
:1042B00004C50EF505C50FF506C510F507C511F5C2
:1042C0000EC508F50FC509F510C50AF511C50BF5A2
:1042D000180E70EFA1F0D8900B320A320932083272
:1042E000E82E6BEFA1F008500C6E0D6A0C500D100B
:1042F000D8A47DEFA1F07FEFA1F09FEFA1F0D890BF
:104300000E34086E0F34096E10340A6E11340B6EC1
:10431000085009100A100B10D8A491EFA1F093EFE8
:10432000A1F099EFA1F0000E056E020E046ECEEF23
:10433000A1F0000E056E030E046ECEEFA1F00C2866
:104340000D10D8A4A6EFA1F0A8EFA1F0CAEFA1F03C
:104350000EC508F50FC509F510C50AF511C50BF511
:10436000090ED890083609360A360B36E82EB1EF1A
:10437000A1F0085009100A100B10D8B4C2EFA1F038
:10438000C5EFA1F0010EC6EFA1F0000E046E056AA4
:10439000CEEFA1F0000E056E040E046E12003CEC90
:1043A000AFF049ECAAF075C520F676C521F677C5C1
:1043B00022F678C523F67AECAAF075C51CF676C508
:1043C0001DF677C51EF678C51FF6ABECAAF075C5CD
:1043D00018F676C519F677C51AF678C51BF6B10E2C
:1043E0000501D36F060ED46FC60ED56FFF0ED66FC4
:1043F00020C6D7F521C6D8F522C6D9F523C6DAF5E9
:1044000062ECABF0020E0E6EB10E0F6E060E106E69
:10441000000EB3EC9FF0B10E0501D36F060ED46F02
:10442000D40ED56FFF0ED66F18C6D7F519C6D8F5BE
:104430001AC6D9F51BC6DAF5000EDC6F250EDB6F48
:1044400062ECABF0040E0E6EB10E0F6E060E106E27
:10445000000EB3EC9FF0B10E0501D36F060ED46FC2
:10446000B70ED56FFF0ED66F1CC6D7F51DC6D8F593
:104470001EC6D9F51FC6DAF562ECABF0060E0E6E5D
:10448000B10E0F6E060E106E000EB3EC9FF0120010
:10449000E5ECAEF00009D8B450EFA2F052EFA2F074
:1044A0005BEFA2F0030E0501F76F0201979BCEECC4
:1044B000ACF0A6EFA2F0F0ECAEF00009D8B463EFD8
:1044C000A2F065EFA2F078EFA2F0C4ECAEF0000924
:1044D000D8B46DEFA2F06FEFA2F078EFA2F0010E6A
:1044E0000501F76F0201979950ECAEF0A6EFA2F02C
:1044F000CFECAEF00009D8B480EFA2F082EFA2F0CA
:1045000093EFA2F0C4ECAEF00009D8B48AEFA2F0A9
:104510008CEFA2F093EFA2F0020E0501F76F0201FB
:10452000979974EFA2F0DAECAEF00009D8B49BEFE3
:10453000A2F09DEFA2F0A4EFA2F0030E0501F76F29
:104540000201979DA6EFA2F0020197990501F7518C
:10455000D8B4ADEFA2F0AFEFA2F0BDEFA2F002D859
:10456000BDEFA2F00500FA6E06013051FD6E31512B
:10457000FE6E3251FF6EFA5012001200000EBE6E37
:10458000060EBF6E000EC06E000EC16E000EC26E33
:10459000000EC36E000E0401026F060E0A6F000EBD
:1045A000126F000E1A6F000E226F000E2A6FC6687F
:1045B000F90EC76EC868F30EC96E0F0ECA6E4F0EA5
:1045C000CB6ED90E006FD10E086F1069F00E186F08
:1045D000070E206FCF0E286F000E016F000E096FBF
:1045E000000E116F000E196F000E216F000E296F63
:1045F00003690B6913691B69070E236F2B69046933
:104600000C6914691C690F0E246F2C69000E0201DD
:10461000896F000E886F000E876F000E866F010E87
:10462000306F090E716F370E0A6F0A0E706F380EF9
:104630000B6F000E0401056F000E066F000E076F72
:10464000000E0D6F000E0E6F000E0F6F000E156F37
:10465000000E166F000E176F000E256F000E266FEE
:10466000000E276F1200166E000E156E9BEFA3F062
:1046700015501024D96E000E1120DA6EDF50E00FB5
:10468000146E780E166447EFA3F049EFA3F04CEFD9
:10469000A3F0000E166E0E2A0EC50CF5165074EC23
:1046A000AEF0000E176E1450100D910EF324126E22
:1046B000F50EF420136E17501226000E132212C5A9
:1046C000F6F413C5F7F4000EF86E0800F5501EEC72
:1046D000A9F0172A070E176470EFA3F072EFA3F08A
:1046E00053EFA3F00E280C6E165074ECAEF0080ECB
:1046F000176E1450100D910EF324126EF50EF42067
:10470000136E17501226000E132212C5F6F413C5AD
:10471000F7F4000EF86E0800F5501EECA9F0172A09
:104720000F0E176496EFA3F098EFA3F079EFA3F0C4
:10473000080E1626152A0F50155CD8A0A2EFA3F07C
:10474000A4EFA3F038EFA3F01200000E126E000EDB
:10475000116E0AC5D9F40BC5DAF4DEC4F6F4DDC473
:10476000F7F4000EF86E0800F5502A0AD8A4BBEF43
:10477000A3F0BDEFA3F0F1EFA3F00AC5D9F40BC588
:10478000DAF4DE2A000EDD220CC5D9F40DC5DAF408
:10479000DFC40EF5020EDE26DFC40FF5000EDD22AB
:1047A0000EC5D9F40FC5DAF4DEC411F5DDC412F577
:1047B00007EFA4F011C504F512C505F5000E076E4C
:1047C0000A0E066E3DECAEF010500424116E000E81
:1047D0000520126E0AC5D9F40BC5DAF4DE2A000EE4
:1047E000DD220AC5D9F40BC5DAF4DEC4F6F4DDC463
:1047F000F7F4000EF86E0800F550D00F106E090E99
:10480000106405EFA4F007EFA4F0DAEFA3F011C5F0
:104810000AF512C50BF512005A505B10D8A413EF1D
:10482000A4F015EFA4F01BEFA4F05AC513F55BC577
:1048300014F521EFA4F0FF0E5A24136EFF0E5B2037
:10484000146E0501FAA127EFA4F029EFA4F032EFCE
:10485000A4F00FC504F5056A0DC506F50EC507F5EC
:10486000D7ECA4F014BE37EFA4F039EFA4F03BEF7F
:10487000A4F03FEFA4F0000E146E000E136E000EB5
:10488000126E000E116E51EFA4F0000E056E200E98
:10489000046E0DC506F50EC507F5D7ECA4F0114A58
:1048A000122A1350115C1250800A106E1450800AA4
:1048B0001058D8A05EEFA4F060EFA4F045EFA4F08C
:1048C0000501FAB166EFA4F068EFA4F071EFA4F06F
:1048D0000FC504F5056A0DC506F50EC507F5D7EC3D
:1048E000A4F01200046E000184BF79EFA4F07BEF06
:1048F000A4F0D6EFA4F00450050D030EF324F66ED9
:10490000FF0EF420F76EF86A000EF8220800F5C4D6
:1049100084F00450050D010EF326000EF422030E60
:10492000F324F66EFF0EF420F76EF86A000EF822FC
:104930000800F5C485F00450050D020EF326000EA4
:10494000F422030EF324F66EFF0EF420F76EF86ADD
:10495000000EF8220800F550FC0B866F0450050D80
:10496000030EF326000EF422030EF324F66EFF0E60
:10497000F420F76EF86A000EF8220800F5C489F0FA
:104980000450050D040EF326000EF422030EF3244A
:10499000F66EFF0EF420F76EF86A000EF82208009B
:1049A000F5C48CF0C89C848FD6EFA4F0120006509A
:1049B0000710D8B4DEEFA4F0E0EFA4F0E9EFA4F024
:1049C00006500710D8A4E7EFA4F0E9EFA4F0EEEF4B
:1049D000A4F004507DECAFF03BEFA5F020EE0AF020
:1049E0000650D9260750DA22DE50DE10D8B4FBEF8D
:1049F000A4F0FDEFA4F018EFA5F020EE0AF00650A9
:104A0000D9260750DA2210EE03F00650E1260750AF
:104A1000E222DE50E65CE650800A0C6EDE50800A30
:104A20000C58D8B016EFA5F018EFA5F03BEFA5F0A5
:104A300020EE03F00650D9260750DA22DEC408F52E
:104A4000DDC409F506C5D9F407C5DAF4DEC40AF5F4
:104A5000DDC40BF508500A24D96E09500B20DA6E1C
:104A600004C5DFF420EE03F00650D9260750DA2201
:104A7000DE2A000EDD221200000E096E07BE45EF91
:104A8000A5F043EFA5F04BEFA5F0066C071ED8B0DC
:104A9000072A010E096E05BE52EFA5F050EFA5F0F2
:104AA00058EFA5F0046C051ED8B0052A010E091AAE
:104AB000000E0B6E000E0A6E06500710D8B463EF9E
:104AC000A5F065EFA5F08DEFA5F0010E086E6DEF76
:104AD000A5F0D89006360736082A07AE72EFA5F083
:104AE00074EFA5F069EFA5F0D8900A360B360650A2
:104AF000045C07500558D8A080EFA5F082EFA5F020
:104B000087EFA5F00650045E0750055A0A80D8903A
:104B100007320632082E74EFA5F00950D8B493EF8F
:104B2000A5F095EFA5F099EFA5F00A6C0B1ED8B093
:104B30000B2A0AC504F50BC505F51200E8EFA5F030
:104B4000100E0601F56F000EF66F000EF76F000EE7
:104B5000F86F100EF96F000EFA6F010E0501FF6F6E
:104B6000FCEFA5F0000E0601F56F100EF66F000EBB
:104B7000F76F100EF86F000EF96F000EFA6F000E4F
:104B80000501FF6FFCEFA5F0000E0601F56F000EAA
:104B9000F66F200EF76F000EF86F000EF96F200E03
:104BA000FA6F030E0501FF6FFCEFA5F0200E060162
:104BB000F56F000EF66F000EF76F200EF86F000E07
:104BC000F96F000EFA6F000E0501FF6FFCEFA5F004
:104BD0000501FF51000AD8B4A0EFA5F0010AD8B42E
:104BE000B2EFA5F0030AD8B4C4EFA5F0010AD8B417
:104BF000D6EFA5F0FCEFA5F01200000E056E320E08
:104C0000046EA7ECADF0AE0ED7ECA8F0200ED7ECFA
:104C1000A8F0100ED7ECA8F0B00ED7ECA8F0C80E94
:104C2000D7ECA8F0000ED7ECA8F0100ED7ECA8F047
:104C3000400ED7ECA8F0810ED7ECA8F07F0ED7EC91
:104C4000A8F0A10ED7ECA8F0A60ED7ECA8F0A80EFD
:104C5000D7ECA8F03F0ED7ECA8F0A40ED7ECA8F044
:104C6000D30ED7ECA8F0000ED7ECA8F0D50ED7ECF9
:104C7000A8F0F00ED7ECA8F0D90ED7ECA8F0220ED1
:104C8000D7ECA8F0DA0ED7ECA8F0120ED7ECA8F00B
:104C9000DB0ED7ECA8F0200ED7ECA8F08D0ED7ECE9
:104CA000A8F0140ED7ECA8F0AF0ED7ECA8F01200C5
:104CB000000E096E05BE61EFA6F05FEFA6F067EF8C
:104CC000A6F0046C051ED8B0052A010E096E07BEB9
:104CD0006EEFA6F06CEFA6F072EFA6F0066C071E62
:104CE000D8B0072A06500710D8B479EFA6F07BEFAA
:104CF000A6F09FEFA6F0010E086E83EFA6F0D89005
:104D000006360736082A07AE88EFA6F08AEFA6F027
:104D10007FEFA6F00650045C07500558D8A093EF2B
:104D2000A6F095EFA6F099EFA6F00650045E0750A6
:104D3000055AD89007320632082E8AEFA6F009509D
:104D4000D8B4A5EFA6F0A7EFA6F0ABEFA6F0046CE1
:104D5000051ED8B0052A04C504F505C505F51200E1
:104D6000000E04140C6E000E05140D6E800E061459
:104D70000E6E7F0E07140F6E0C500D100E100F10DC
:104D8000D8A4C5EFA6F0C7EFA6F0CFEFA6F0000EAF
:104D9000046E000E056E000E066E000E076E000E0D
:104DA00008140C6E000E09140D6E800E0A140E6E9F
:104DB0007F0E0B140F6E0C500D100E100F10D8A498
:104DC000E4EFA6F0E6EFA6F0EEEFA6F0000E086E18
:104DD000000E096E000E0A6E000E0B6E08500418CD
:104DE0000FE1095005180CE10A50061809E10B50B3
:104DF0000718D8B4FEEFA6F000EFA7F003EFA7F076
:104E0000D89004EFA7F0D8801200000E0C6E000EB0
:104E10000D6E000E0E6E000E0F6E085009100A1077
:104E20000B10D8B416EFA7F018EFA7F04EEFA7F0CD
:104E3000010E106E22EFA7F0D890083609360A3618
:104E40000B36102A0BAE27EFA7F029EFA7F01CEFC7
:104E5000A7F0D8900C360D360E360F360850045C8D
:104E6000095005580A5006580B500758D8A03BEF78
:104E7000A7F03DEFA7F046EFA7F00850045E0950F9
:104E8000055A0A50065A0B50075A0C80D8900B321C
:104E90000A3209320832102E29EFA7F00CC504F5AA
:104EA0000DC505F50EC506F50FC507F51200050180
:104EB000FAA15DEFA7F05FEFA7F069EFA7F016C5C5
:104EC0000DF517C50EF514C50FF515C510F56CECED
:104ED000ACF019BE70EFA7F06EEFA7F074EFA7F07B
:104EE000000E196E000E186E000E1C6E000E1B6E6A
:104EF00086EFA7F0000E056E200E046E14C506F5B1
:104F000015C507F5D7ECA4F01B4A1C2A18501B5CEA
:104F10001C50800A1A6E1950800A1A58D8A093EFB4
:104F2000A7F095EFA7F07AEFA7F00501FAB19BEF94
:104F3000A7F09DEFA7F0A7EFA7F016C50DF517C5D1
:104F40000EF514C50FF515C510F56CECACF012009C
:104F5000FAC402F5FBC403F5A5A6B1EFA7F0B3EFC1
:104F6000A7F0BEEFA7F0B5A6B8EFA7F0BAEFA7F08D
:104F7000BEEFA7F048ECA2F0F4EFA7F0A5A0C3EFB6
:104F8000A7F0C5EFA7F0D0EFA7F0B5A0CAEFA7F044
:104F9000CCEFA7F0D0EFA7F0B9ECAEF0F4EFA7F0AC
:104FA000A5A4D5EFA7F0D7EFA7F0E2EFA7F0B5A43F
:104FB000DCEFA7F0DEEFA7F0E2EFA7F044ECA8F0FB
:104FC000F4EFA7F0A5A2E7EFA7F0E9EFA7F0F4EF61
:104FD000A7F0B5A2EEEFA7F0F0EFA7F0F4EFA7F07F
:104FE000AEECAEF0F4EFA7F003C5FBF402C5FAF4A3
:104FF00011000501FB51FC0B0109FB6FF40E0601CA
:10500000E56FFBC5E6F6000E066E760E056EE50E44
:10501000076E060E086E000E0A6E020E096ED90E9D
:10502000F66EFE0EF76E000EF86E02D825EFA8F0B1
:105030000500FA6E0900F550FD6E0900F550FE6E90
:105040000900F550FF6EFA501200E80EF66EFE0EE3
